:1008220053544331355734313341532030350D0A57
:0108320000C5
:100805007592FFE4F5917596FFF59575B2FA75B198
:0D081500057590FF75A0FF75B0FF02072C60
:10022600E4F5231208057BFF7A08792212077C126F
:100236000392E511B40103E4F511E52314700302FA
:1002460002DC1470030202FF14700302032224036B
:100256006003020348751630751739AE16AF177C62
:10026600277D1012062E7C007D0A12062E8D22AEE8
:1002760016AF177C037DE812062E7C007D0A120657
:100286002E8D21AE16AF177C007D6412062E7C00E3
:100296007D0A12062EAB05AE16AF177C007D0A123C
:1002A600062E7C007D0A12062EAA05AE16AF177C16
:1002B600007D0A12062EAF05E522900013934480B6
:1002C600F50CE52193F50BAE03EE93F50AAE02EEBF
:1002D60093F509EF8067750CF6E54AC4540F900054
:1002E6001393F50BE54A540F93F50AE54BC4540FE7
:1002F60093F509E54B540F8044750CB8E54CC4548E
:100306000F90001393F50BE54C540F93F50AE54D4A
:10031600C4540F93F509E54D540F8021750C2DE556
:100326004EC4540F90001393F50BE54E540F93F5FE
:100336000AE54FC4540F93F509E54F540F93F5089A
:100346008003E4F52320B51B7F027E001207E5201B
:10035600B5111523C3E523648094805003752303E8
:1003660030B5FD30B6030202357F027E001207E586
:1003760030B6030202350523D3E523648094834017
:0C03860003E4F52330B60302023580F8D2
:10000E0010080402013F065B4F666D7D077F6F7718
:05001E007C395E7971E0
:0C07C40002130000011200011500C10129
:1007E500E4FDFCC3ED9FEC9E5015E4FBFA0BBB004A
:0F07F500010ABA01F8BB2CF50DBD00010C80E420
:0108040022D1
:10072C00759850438E01438E0475D7E075D6FE4301
:10073C008E10438E805389F0758ACD758CD4C28D02
:09074C00D2ACD2AFD2A9D28C22AA
:03000B000204C428
:1004C400C0E0C0F0C083C082C0D075D000C000C0FE
:1004D40001C002C003C004C005C006C0070514E57E
:1004E4001470020513B4E80EE513B4030975130080
:1004F40075140075110175900053A0E0E5121460A5
:100504001B14602614603114603C24047045900070
:100514000EE49342A00512850890803790000FE402
:100524009342A005128509908029900010E493421B
:10053400A00512850A90801B900011E49342A00547
:1005440012850B90800D900012E49342A075120066
:10055400850C907F01120700D007D006D005D00487
:10056400D003D002D001D000D0D0D082D083D0F03C
:03057400D0E032A2
:030023000206CC06
:1006CC00C0E0C0D075D000C000C007309814C298EC
:1006DC00E515C39428500BAF15051574002FF8E5DC
:1006EC0099F2309906C299C200D201D007D000D03D
:0406FC00D0D0E03248
:080003002000FDD2008F9922BC
:10077C008B248A258926AB24AA25A9261206036078
:10078C00130526E5267002052514F9120603FF123F
:05079C00000380E222D1
:1000260000C1814001C0804101C0804100C18140C2
:1000360001C0804100C1814000C1814001C08041B2
:1000460001C0804100C1814000C1814001C08041A2
:1000560000C1814001C0804101C0804100C1814092
:1000660001C0804100C1814000C1814001C0804182
:1000760000C1814001C0804101C0804100C1814072
:1000860000C1814001C0804101C0804100C1814062
:1000960001C0804100C1814000C1814001C0804152
:1000A60001C0804100C1814000C1814001C0804142
:1000B60000C1814001C0804101C0804100C1814032
:1000C60000C1814001C0804101C0804100C1814022
:1000D60001C0804100C1814000C1814001C0804112
:1000E60000C1814001C0804101C0804100C1814002
:1000F60001C0804100C1814000C1814001C08041F2
:1001060001C0804100C1814000C1814001C08041E1
:1001160000C1814001C0804101C0804100C18140D1
:1001260000C0C101C30302C2C60607C705C5C40491
:10013600CC0C0DCD0FCFCE0E0ACACB0BC90908C801
:10014600D81819D91BDBDA1A1EDEDF1FDD1D1CDCF1
:1001560014D4D515D71716D6D21213D311D1D01061
:10016600F03031F133F3F23236F6F737F53534F451
:100176003CFCFD3DFF3F3EFEFA3A3BFB39F9F838C1
:1001860028E8E929EB2B2AEAEE2E2FEF2DEDEC2CB1
:10019600E42425E527E7E62622E2E323E12120E021
:1001A600A06061A163A3A26266A6A767A56564A411
:1001B6006CACAD6DAF6F6EAEAA6A6BAB69A9A86881
:1001C60078B8B979BB7B7ABABE7E7FBF7DBDBC7C71
:1001D600B47475B577B7B67672B2B373B17170B0E1
:1001E60050909151935352929656579755959454D1
:1001F6009C5C5D9D5F9F9E5E5A9A9B5B9959589841
:10020600884849894B8B8A4A4E8E8F4F8D4D4C8C30
:1002160044848545874746868242438341818040A0
:080683008B448A4589468D472E
:10068B007FFF7DFFAE471547EE6031AB440546E576
:10069B0046AA457002054514F91206036FFB7A0052
:1006AB002426F582EA3400F583E4936DFF74262B40
:1006BB00F582EA3401F583E493FD80C8EFFEEDFF8C
:0106CB00220C
:1007D000C1020A4A0012345678890000000001481C
:0407E00000014900CB
:10075500EDD395154002AD15E4FFEFC39D5012741E
:10076500002FF8E212061C740129F9E43AFA0F8009
:06077500E9E4F515AF05F3
:01077B00225B
:0B0833000000000000000000DFF622C3
:1007A100D2CDAF051DEF6013C201120603F5997496
:1007B1000129F9E43AFA2001E980FB7F3C12083370
:0307C100C2CD2284
:100392002002030204C3C2027B007A0079267D1E7A
:1003A2001207558F25E526640160030204C37A0013
:1003B2007926E52524FEFD120683AB07AA06AE03C5
:1003C20074242525F8E66A60030204C374252525F2
:1003D200F8E66E60030204C3E52724FA606D240385
:1003E2006003020488E528705DE529D39405505620
:1003F200E52994045040852924AF2BEF25E0F52808
:10040200752503AE071FEE7003020491AE24052486
:10041200744A2EF8E6FEAD25052574262DF8A606AB
:10042200AE240524744A2EF8E6FEAD250525742671
:100432002DF8A60680CD752802E4F529A20333F52E
:100442002A75250580497527838036E528702FE5B2
:1004520029D394055028E52994045016E52925E06E
:10046200F524244AF8A62AE52404FF244AF8A62BF8
:100472008006E52B24FF920315251525801175278B
:100482008675280280064327807528017525037B1F
:10049200007A007926AD25120683AA06AB07AF02C1
:1004A200AE25052574262EF8A607AF03AE25052531
:1004B20074262EF8A6077B007A007926AD2512074E
:0104C200A198
:0104C3002216
:10070000E515D394004021E5486515600785154837
:10071000E4F54922E549C394055010EF2549F54910
:0B072000C394054006D20222E4F54815
:01072B0022AB
:030000000205777F
:0C057700787FE4F6D8FD7581530205BEC4
:10060300BB010689828A83E0225002E722BBFE02F5
:09061300E32289828A83E4932228
:10061C00BB010689828A83F0225002F722BBFE01BD
:02062C00F322B7
:10062E00BC000BBE0029EF8DF084FFADF022E4CCB0
:10063E00F875F008EF2FFFEE33FEEC33FCEE9DEC79
:10064E00984005FCEE9DFE0FD5F0E9E4CEFD22EDBF
:10065E00F8F5F0EE8420D21CFEADF075F008EF2F09
:10066E00FFED33FD4007985006D5F0F222C398FDFA
:05067E000FD5F0EA2297
:10058300020226E493A3F8E493A34003F68001F266
:1005930008DFF48029E493A3F85407240CC8C33379
:1005A300C4540F4420C8834004F456800146F6DF48
:1005B300E4800B01020408102040809007C4E47E0D
:1005C300019360BCA3FF543F30E509541FFEE4933D
:1005D300A360010ECF54C025E060A840B8E493A304
:1005E300FAE493A3F8E493A3C8C582C8CAC583CA2F
:1005F300F0A3C8C582C8CAC583CADFE9DEE780BEE7
:0107E4000014
:00000001FF
